:03000000020100FA
:03000300020100F7
:03000B00020100EF
:03001300020100E7
:03001B00020100DF
:03002300020100D7
:03002B00020100CF
:10010000C2AF12014312026B12026B0A0D57656CEB
:10011000636F6D6520746F20362E313135210A0DE5
:10012000656861767567693E200075812FC2AFC230
:100130000012026B0D0A2A00C29812022EFA020265
:100140004A80E7758920758841758DFD7598502224
:1001500001EE01EE01EE01EE019C01EE01EE0186E1
:1001600001EE01EE01EE01EE01EE01EE01EE01EE17
:1001700001EE01EE01EE01EE01EE01EE01EE01EE07
:1001800001EE01EE01EE12021CFF12028A12021CA5
:10019000C0E012028A12027FEFC0E02212027F74D6
:1001A0003E120259120261B43AFA1201E46021F8D7
:1001B0001201E4D2E7F5831201E4F5821201E412A0
:1001C00001E4F0A3D8F91201E4742E12025980D48C
:1001D0001201E41201E41201E41201E4742E12028D
:1001E0005902014112021C200001220202041202E3
:1001F0006B0D0A2062616420636F6D6D616E642017
:100200000002014112026B0D0A20626164207061DC
:1002100072616D6574657220000201411202611203
:1002200002B1C4F5F01202611202B145F0221202CD
:1002300061C2E5120259C394405003120204C0E0A7
:10024000941B4003120204D0E022900150EA2304E0
:1002500093C0E0EA2393C0E022C299F5993099FD5A
:10026000223098FDE599547FC29822D083D082E451
:1002700093B400028006120259A380F374017374D0
:100280000A120259740D12025922C0E01202991288
:100290000259EA120259D0E022FA540F24F6500211
:1002A0002407243ACAC4540F24F650022407243ADF
:1002B00022C20024D05017C324F64003240A22C2CD
:1002C000E5C324F95008C324FA4003540F22D20096
:0602D000020141020000E2
:00000001FF
